:100000000C9464000C94D2010C9481000C94810037
:100010000C9481000C9481000C9481000C9481005C
:100020000C9481000C9481000C9481000C9481004C
:100030000C9481000C9481000C9481000C9481003C
:100040000C9481000C9481000C9481000C9481002C
:100050000C9481000403090412036F006200640021
:10006000650076002E006100740014034C0045000A
:100070004400430074006C00480049004400120131
:10008000100100000008C016DF0500010102000198
:10009000090222000101008014090400000103008C
:1000A0000000092101010001221600070581030853
:1000B00000640600FF0901A101150026FF00750874
:1000C00095010900B20201C011241FBECFE5D8E09E
:1000D000DEBFCDBF10E0A0E6B0E0E0E5F6E002C094
:1000E00005900D92A236B107D9F710E0A2E6B0E074
:1000F00001C01D92AA39B107E1F70E9409030C94CF
:1001000026030C94000085B7836085BF8BB780649D
:100110008BBF8BE4809370008AE580936F00089515
:100120001F93CF93DF9390918000935097FDA2C0CF
:1001300020917D0080917C008D3209F099C098302B
:1001400009F096C0CCE0D0E0C21BD109CC57DF4FFC
:1001500083EC809364008AE58093600010926200D3
:100160008881807629F0CE010E94E902282F77C08D
:100170009A8110926D008981882321F410926E007B
:1001800022E067C0853019F49093810061C0863009
:1001900009F04AC08B81813019F48EE790E01BC0D2
:1001A000823041F480E990E090937F0080937E005C
:1001B00022E236C08330F9F48A81882341F484E551
:1001C00090E090937F0080937E0024E029C08130EE
:1001D00041F488E590E090937F0080937E0022E1D7
:1001E0001FC08230E1F48AE690E090937F00809314
:1001F0007E0024E115C0813241F482EA90E09093C0
:100200007F0080937E0029E00BC0823241F482EBB4
:1002100090E090937F0080937E0026E101C020E073
:1002200080E4809362001BC0883021F421E083E8E1
:1002300090E011C0893019F49093830009C08A308E
:1002400011F421E006C08B3019F48BE48093700028
:1002500020E08DE690E090937F0080937E008F8178
:10026000882321F48E81821708F4282F20936100BF
:10027000109280008091600084FF4AC080916100EC
:100280008F3F09F445C0182F893008F018E0811B12
:10029000809361008091640098E8892780936400CE
:1002A000112341F120917E0030917F008091620006
:1002B00086FF0DC0A5E6B0E080E090E0F901E80F10
:1002C000F91FE491ED9301961817C1F708C0912F1B
:1002D000D901E5E6F0E08D9181939150E1F711505D
:1002E000812F90E01F5F0196820F931F90937F00F4
:1002F00080937E00612F85E690E00E94CE01612F01
:100300006C5F6C3019F08FEF809361006093600038
:100310009AE080B3847131F49150D9F71092810042
:1003200010927B00DF91CF911F9108951F93DC0104
:10033000162F80916F0084FF07C08091700098E8AD
:1003400089278093700003C08AE580936F00912F06
:10035000E1E7F0E08D91819391501916DCF3612F64
:1003600081E790E00E94CE011C5F10936F001F9107
:100370000895A82FB92F80E090E041E050EA609501
:100380006F5F58F42D9138EF82279795879510F07D
:10039000842795273F5FC8F3F3CF0895EADF8D9355
:1003A0009D930895CF93CFB7CF93DF93849BFECFD8
:1003B000849B11C0849B0FC0849B0DC0849B0BC089
:1003C000849B09C0849B07C0849B05C0849B03C099
:1003D000849B01C083C06F93C0917D00DD27CC5703
:1003E000DF4F2F9320E400C065E0849B03C02F9172
:1003F0006F91DECF0F931F934F9345E55F9355E5C4
:100400003F933BE014E000B304712EC06A95C9F03D
:100410003150D8F100B3047101130BC00894279533
:10042000299320E4555500F46A9569F701E060B31B
:100430000BC0102F66E02695299320E4555518F33C
:10044000E2CF0FEF60B30000162F455500F040409B
:1004500066E014710030E2F221F0000000B3047194
:1004600003C000B30471A9F0011309C008942795D3
:1004700068F200C06A95A9F700E060B3E5CF102FDD
:1004800066E0269528F20000ECCF10E41ABF0027A2
:1004900019C03B503195C31BD04010E41ABF0881EE
:1004A000033C09F10B34F9F020917B001981110F05
:1004B0001213EDCF4A81441F093651F10D3211F06C
:1004C000013E29F7009382003F915F914F911F9168
:1004D0000F912F916F91CAB7C6FD68CFDF91CF9171
:1004E000CFBFCF91189500918200002369F310913E
:1004F0008000112381F5343082F130938000009325
:100500007C0010917D003BE0311B30937D0025C0C5
:10051000009180000130FCF40AE54F7049F43091FD
:10052000600034FD1BC000936000C4E6D0E01AC038
:1005300030916F0034FD12C000936F00C0E7D0E02F
:1005400011C0052710E000C002BB19C0052710E04C
:10055000221F00C01DC04AE502C032ED432FC4E196
:10056000D0E032E011B31461949A02B311BB54E1AC
:1005700020E869E420FF052702BB2795179500C0F6
:1005800000001C3FF0F66695A8F7A1F720FF0527AD
:1005900002BB2795179500001C3FC0F629913A959C
:1005A00041F70B7E10918100110F02BBC651D04064
:1005B00011F010937B0010E41ABF006111B31B7E91
:1005C000402F4B7E55E05A95F1F702BB11BB42BB61
:1005D0007BCFFC01808180768034C9F481818130B9
:1005E00041F4828180FF02C0C09A01C0C09880E0BF
:1005F0000895823061F488B381708093630083E64C
:1006000090E090937F0080937E0081E0089580E0E9
:1006100008952EE088E190E00FB6F894A89581BD8A
:100620000FBE21BD0E9483008C9A20E048E853E170
:1006300004C0A895CA010197F1F72150D1F78C9811
:10064000B89A7894A8950E949000FCCFF894FFCFB8
:020650005AFF4F
:00000001FF
