:100000000C9464000C94D2010C9481000C94810037
:100010000C9481000C9481000C9481000C9481005C
:100020000C9481000C9481000C9481000C9481004C
:100030000C9481000C9481000C9481000C9481003C
:100040000C9481000C9481000C9481000C9481002C
:100050000C9481000403090412036F006200640021
:10006000650076002E006100740014034C0045000A
:100070004400430074006C00480049004400120131
:10008000100100000008C016DF0500010102000198
:10009000090222000101008014090400000103008C
:1000A0000000092101010001221600070581030853
:1000B00000640600FF0901A101150026FF00750874
:1000C00095010900B20201C011241FBECFE5D4E0A2
:1000D000DEBFCDBF10E0A0E6B0E0ECEDF6E002C080
:1000E00005900D92A236B107D9F710E0A2E6B0E074
:1000F00001C01D92AA39B107E1F70E944F030C9489
:100100006C030C94000085B7836085BF8BB7806457
:100110008BBF8BE4809370008AE580936F00089515
:100120001F93CF93DF9390918000935097FDA2C0CF
:1001300020917D0080917C008D3209F099C098302B
:1001400009F096C0CCE0D0E0C21BD109CC57DF4FFC
:1001500083EC809364008AE58093600010926200D3
:100160008881807629F0CE010E942F03282F77C046
:100170009A8110926D008981882321F410926E007B
:1001800022E067C0853019F49093810061C0863009
:1001900009F04AC08B81813019F48EE790E01BC0D2
:1001A000823041F480E990E090937F0080937E005C
:1001B00022E236C08330F9F48A81882341F484E551
:1001C00090E090937F0080937E0024E029C08130EE
:1001D00041F488E590E090937F0080937E0022E1D7
:1001E0001FC08230E1F48AE690E090937F00809314
:1001F0007E0024E115C0813241F482EA90E09093C0
:100200007F0080937E0029E00BC0823241F482EBB4
:1002100090E090937F0080937E0026E101C020E073
:1002200080E4809362001BC0883021F421E083E8E1
:1002300090E011C0893019F49093830009C08A308E
:1002400011F421E006C08B3019F48BE48093700028
:1002500020E08DE690E090937F0080937E008F8178
:10026000882321F48E81821708F4282F20936100BF
:10027000109280008091600084FF4AC080916100EC
:100280008F3F09F445C0182F893008F018E0811B12
:10029000809361008091640098E8892780936400CE
:1002A000112341F120917E0030917F008091620006
:1002B00086FF0DC0A5E6B0E080E090E0F901E80F10
:1002C000F91FE491ED9301961817C1F708C0912F1B
:1002D000D901E5E6F0E08D9181939150E1F711505D
:1002E000812F90E01F5F0196820F931F90937F00F4
:1002F00080937E00612F85E690E00E94CE01612F01
:100300006C5F6C3019F08FEF809361006093600038
:100310009AE080B3847131F49150D9F71092810042
:1003200010927B00DF91CF911F9108951F93DC0104
:10033000162F80916F0084FF07C08091700098E8AD
:1003400089278093700003C08AE580936F00912F06
:10035000E1E7F0E08D91819391501916DCF3612F64
:1003600081E790E00E94CE011C5F10936F001F9107
:100370000895A82FB92F80E090E041E050EA609501
:100380006F5F58F42D9138EF82279795879510F07D
:10039000842795273F5FC8F3F3CF0895EADF8D9355
:1003A0009D930895CF93CFB7CF93849BFECF849B2B
:1003B0000BC0849B09C0849B07C0849B05C0849BA1
:1003C00003C0849B01C0D5C00F92DF93C0917D0014
:1003D000DD27CC57DF4F012E849B03C0DF910F90A8
:1003E000E6CF2F930F931F934F932FEF4F6F00B3D1
:1003F00004FB20F95F933F9350E03BE065C010B3EE
:100400000126502954FDC89550B3012704FB25F956
:100410002F7300B3B1F05027102714FB26F900B258
:100420002230F0F000C010B3012704FB27F90126A9
:10043000502900B22430E8F54F77206810B300004F
:10044000F6CF50274F7D206200B2102F000000C071
:1004500000B300265029102714FB26F900B2E2CF82
:100460004F7B00B3206400C0DACF012650291471FD
:1004700000B269F14E7F2160012F10B328C0002621
:1004800050294D7F00B22260102F29C0012650292B
:100490004B7F00B22460012F2DC010B301265029DC
:1004A000477F2860000000B22EC04F7E00B320615D
:1004B00030C0422700B3499300265029102700B2CC
:1004C0004FEF14FB20F9297F10B379F2147159F121
:1004D0000126502900B2012704FB21F9237F00B334
:1004E00071F2002650293150D0F000B2102714FBD1
:1004F00022F9277E10B351F201265029012704FB6F
:1005000000B223F92F7C49F2000000B3102714FB3E
:1005100024F90026502900B22F7939F270CF10E467
:100520001ABF002719C03B503195C31BD04010E4BF
:100530001ABF0881033C09F10B34F9F020917B00CC
:100540001981110F1213EDCF4A81441F093651F161
:100550000D3211F0013E29F7009382003F915F9127
:100560004F911F910F912F91DF910F90CAB7C6FD48
:100570001CCFCF91CFBFCF9118950091820000235F
:1005800069F310918000112379F534307AF13093BA
:10059000800000937C0010917D003BE0311B309384
:1005A0007D0024C0009180000130F4F40AE54F7012
:1005B00049F43091600034FD1AC000936000C4E635
:1005C000D0E019C030916F0034FD11C000936F006E
:1005D000C0E7D0E010C0052710E000C021C005270B
:1005E00010E0C89502BB14C03AE501C032ED032EFD
:1005F000C0E0D0E032E011B31461949A02B311BBB1
:1006000054E120E84FEF20FF052702BB27951795FF
:100610001C3F28F700004552B0F720FF052727951B
:1006200002BB17951C3FB8F629913A9561F70B7EEE
:1006300010918100110F02BBC250D04011F01093F5
:100640007B0010E41ABF006111B31B7E402F4B7E6C
:1006500054E05A95F1F702BB11BB42BB7FCFFC01BE
:10066000808180768034C9F48181813041F4828137
:1006700080FF02C0C09A01C0C09880E00895823017
:1006800061F488B381708093630083E690E0909377
:100690007F0080937E0081E0089580E008952EE041
:1006A00088E190E00FB6F894A89581BD0FBE21BDFA
:1006B0000E9483008C9A20E04DE150E104C0A8958F
:1006C000CA010197F1F72150D1F78C98B89A789424
:0C06D000A8950E949000FCCFF894FFCF8A
:0206DC005AFFC3
:00000001FF
