:10000000D6C091C2EFC045C5EDC0ECC0EBC0EAC0A0
:10001000E9C0E8C0E7C0E6C0E5C0E4C0E3C0E2C0B4
:10002000E1C0E0C0DFC009022200010100C02809D0
:100030000400000103000000092101010001222148
:10004000000705810308000A1201100100000008E2
:10005000C016DF0500010102000114034100750014
:1000600074006F006D00610074006F0072001A036D
:100070007700770077002E006F0062006400650053
:1000800076002E0061007400040309040600FF09D5
:1000900001A101150026FF007508850195020900E0
:1000A000B20201850295800900B20201C075007A92
:1000B000007F0085008A00900096009D00A300AAA2
:1000C00000B200B900C100C900D200DB00E400EEBC
:1000D00000F80003010E011901250132013F014C16
:1000E000015A016901780188019901AB01BD01D074
:1000F00001E401F8010E0224023B0254026D028861
:1001000002A302C002DE02FD021E03400363038855
:1001100003AF03D70301042C045A048904BB04EF82
:100120000424055C059705D405130656069B06E3D3
:10013000062E077C07CE0723087C08D90839099EBC
:1001400009070A740AE60A5D0BD90B5A0CE10C6D1B
:100150000D000E990E380FDE0F8B103F11FC11C0F1
:10016000128C13611440152816191715181C192E16
:100170001A4C1B751CAC1DF01E4120A12110238EB2
:10018000241D26BD276E29322B0A2DF52EF5300BA6
:100190003338357D37DA39513CE33E91415D444691
:1001A00047504A7B4DC8503954D0578E5B001124BC
:1001B0001FBECFE5D4E0DEBFCDBF10E0A0E6B0E0CB
:1001C000E8E6F1E102C005900D92A236B107D9F739
:1001D00012E0A2E6B0E001C01D92A73BB107E1F733
:1001E0006CD5C0C70DCFCF93C62F20918C0224FFB2
:1001F00018C020918D0238E8232720938D022C2FE0
:10020000FC01AEE8B2E081918D9321501216DCF32F
:100210008EE892E06C2F83D1CC5FC0938C02CF919B
:1002200008952AE520938C02EACFCF93DF93609163
:100230009D02635067FD14C020919A028CE090E00B
:10024000821B9109EC01CF55DD4F209199022D328F
:1002500009F45EC08091620087FD88C010929D0203
:100260008091600084FF47C0609161006F3F09F496
:1002700042C0693058F168506093610080918102FA
:1002800098E889278093810268E02091620027FD29
:100290008BC080919B0290919C0226FF71C0FC0153
:1002A000262FA2E8B2E034913D9331962150D9F740
:1002B000262F215030E02F5F3F4F280F391F3093FA
:1002C0009C0220939B02C62FCC5F0BC01092610052
:1002D0008091810298E88927809381026623A9F69C
:1002E000C4E082E892E01BD1CC3019F08FEF80930C
:1002F0006100C093600094E180B3857031F4915047
:10030000D9F710929E0210929802DF91CF91089532
:10031000683009F0A3CF23EC209381022AE52093D3
:100320006000109262003881232F207691F54A8177
:1003300010928A022981222309F042C03F7119F4E8
:1003400081E080938A0210928B022AE832E082E0F8
:1003500030939C0220939B029F81992321F49E81DC
:10036000981708F4892F8093610078CFCE01F6D3D7
:100370008F3FC1F1882309F471CF109261006ECFD5
:10038000DC01262FE2E8F2E03D9131932150E1F7C4
:100390008FCFCE014FD48F3FF9F6988197FD44C09F
:1003A00090E890936200DFCF82E892E0A3D3682FB9
:1003B000893008F487C08FEF80936100CEE199CF38
:1003C0002530A1F02630C1F0283081F1293091F19B
:1003D0002A3009F456C02B3009F44CC02AE832E028
:1003E00080E0B6CF8EE18093600038CF40939E02CC
:1003F0002AE832E080E0ACCFFC01ED55FD4F2081D2
:100400008C559D4FFC018081813061F1823011F16A
:100410008330B1F08132C9F1823209F44BC080E0FF
:1004200090E49093620098CF8E81BACF20EA32E0B8
:1004300081E08ECF4093A0022AE832E080E088CFAE
:10044000222359F588E890E090939C0280939B02C8
:1004500084E0E6CF86E290E090939C0280939B023A
:1004600082E2DECF88E490E090939C0280939B022E
:1004700082E1D6CF8BE480938D022AE832E080E0DF
:1004800067CF2AE832E081E063CF88E390E0909381
:100490009C0280939B0289E0C3CF2130B1F02230CF
:1004A00009F0BDCF8AE590E090939C0280939B0277
:1004B00084E1B6CF8CE890E090939C0280939B02FD
:1004C00081E2AECFC82FCC5F0CCF8EE690E0909348
:1004D0009C0280939B028AE1A3CF85B7836085BF8E
:1004E0008BB780648BBF8BE480938D028AE5809309
:1004F0008C020895A82FB92F80E090E041E050EAE7
:10050000609530E009C02D9182279795879510F06E
:1005100084279527305EC8F36F5FA8F30895EADF5C
:100520008D939D930895CF93CFB7CF93C395809B21
:10053000E9F7809B09C0809B07C0809B05C0809B1A
:1005400003C0809B01C0A3C0DF93C0919A02DD2746
:10055000CF55DD4F809B02C0DF91EBCF2F930F93E0
:100560001F9300B32FEF00FB20F94F933F9310B37D
:100570004FEF012700FB21F93BE031C04E7F012FF7
:1005800010B3216028C0102F4D7F2260000000B3FF
:1005900029C04B7F2460012F000010B32BC010B383
:1005A000477F28602AC04F7E00B320612CC04F7D5A
:1005B00010B320622FC04F7B00B3206432C04227AB
:1005C00000B349934FEF0000102710FB20F910B340
:1005D0001570C9F1297F91F2012700FB21F900B3C1
:1005E000237F89F2315058F1102710FB22F910B304
:1005F000277E79F2012700FB23F92F7C81F200B3DB
:10060000102710FB24F92F7971F200C010B30127D5
:1006100000FB25F92F7359F200C000B3102710FB1F
:1006200026F9223040F200C010B3012700FB27F961
:10063000243028F64F77206810B30000F9CF10E47B
:100640001ABF002719C03B503195C31BD04010E49E
:100650001ABF0881033CF9F00B34E9F020919802AD
:100660001981110F1213EDCF4A81441F093641F150
:100670000D3211F0013E29F700939F023F914F91F7
:100680001F910F912F91DF91CAB7C6FD4FCFCF9128
:10069000CFBFCF91189520919F02222379F310911B
:1006A0009D02112369F534306AF130939D02209345
:1006B000990210919A023BE0311B30939A0222C0BA
:1006C00000919D020130E4F40AE54F7049F4309145
:1006D000600034FD19C000936000C1E8D2E018C08A
:1006E00030918C0234FD10C000938C02CDE8D2E032
:1006F0000FC02795A8F45150A9F4220F0000F9CF9C
:100700004AE503C042ED01C0432FC4E1D0E032E02E
:1007100011B31560909A11BB02B320E415E05F930A
:10072000012756E002BB279520F4515021F4220FF7
:10073000F9CF012756E000003B5A02BBD0F22795C3
:1007400028F4515029F4220F0000F9CF012756E078
:10075000279502BB20F4515021F4220FF9CF012735
:1007600056E02991332302BB21F60A7F10919E02A5
:10077000110FC651D04002BB11F01093980210E443
:100780001ABF016011B31A7F402F4A7F5F9100C0EA
:1007900000C002BB11BB42BB71CF90917400992382
:1007A000A9F4909175009095982398BB8FE387BB2F
:1007B00097BB31B3306C81B3907C8F73892B22B39C
:1007C0002F73292B22BB31BB81BB089590917500FB
:1007D000ECCF8FEF9FEF90936C0080936B001092A3
:1007E0006E0010926D0010926F0080E0D6DF1092C4
:1007F0007000109271001092720010927300919A22
:100800000895882319F493988B9A08958B98939A56
:10081000089520917F003091800091E02E3F3907AC
:1008200050F088EE93E0909364008093630089B762
:10083000806889BF0895F901E158FF4F82832F5FD7
:100840003F4F3093800020937F000895CF92DF9236
:10085000FF920F931F93CF93DF930F92CDB7DEB725
:100860006C01C114D104A9F080E0C81682E0D8065A
:10087000C8F09D2D9695903108F09FE0892F806FEC
:100880009983C7DF9981192F110F00E0C01AD10A8F
:1008900059F70F90DF91CF911F910F91FF90DF904B
:1008A000CF900895E1E2CE16D10428F48C2D81502A
:1008B000806CAFDFEECFC6019695879592958295B5
:1008C0008F7089279F708927F82E806EA2DF8F2D69
:1008D00090E0880F991F82959295907F9827807F4E
:1008E0009827C81AD90ABDCF1F93CF93DF930F92D1
:1008F000CDB7DEB7182FE0917F00F09180003097E0
:10090000D1F0DF01A158BF4F11967C9111971230A1
:10091000A9F01230B8F0133029F480917900909149
:100920007A0094DF10927A00109279000F90DF9194
:10093000CF911F9108957FEF123059F7862F80686D
:1009400068DFF0CFA0917900B0917A00A830B105AE
:1009500018F5872F90E09C0127703070462F50E0EB
:1009600024173507C9F4887390700097A9F4872F6E
:10097000807C803479F0882379F4113069F4109701
:10098000B9F43197F0938000E0937F00E158FF4F76
:100990007183C8CF112399F3CD01698357DF812F6C
:1009A0008295880F880F807C6981862B32DFBACFD1
:1009B000AA0FAA0FAA0F7A2BE9CFEF92FF920F93FB
:1009C0001F93CF93DF9383B380958F70F0907E0059
:1009D000F82680937E00F822C0E7D0E001E010E026
:1009E00043E0E42E802F8F2129F0E882809175006A
:1009F000882361F4000F1F5F2196143099F7DF916F
:100A0000CF911F910F91FF90EF90089582E0612F99
:100A10006BDFF0CF0F931F93CF93DF9306B380B3B9
:100A20000F73807C082B10917F02102700937F02A8
:100A3000C1E0D0E007C08C2F8023F1F4CC0FDF5F42
:100A4000D830A9F08C2F8123C9F3809174008823BA
:100A500091F780917500882389F39C2F902381E082
:100A6000A1F46D2F41DFCC0FDF5FD83059F7DF9154
:100A7000CF911F910F910895809175008C278093DD
:100A8000750080916F0089DED9CF80E06D2F2CDF5B
:100A9000EACF78941F920F920FB60F9211248F9382
:100AA0009F938091630090916400019790936400FC
:100AB000809363001816190694F480FD08C091987D
:100AC0009F918F910F900FBE0F901F901895919A44
:100AD0009F918F910F900FBE0F901F90189589B71F
:100AE0008F7789BF919A9F918F910F900FBE0F9032
:100AF0001F9018950F931F93CF93DF93209165005C
:100B0000C62F261708F4C22F2138F1F0DC2F0D2F45
:100B100010E06091660070916700A801F0D28091AA
:100B2000660090916700800F911F909367008093FB
:100B30006600809165008D1B809365008C2FDF918E
:100B4000CF911F910F91089520E820936500DC2F2D
:100B5000D15022E0FC012193CF01D9CFEF92FF9237
:100B60001F93CF93DF9310916800112379F11F3FFA
:100B7000A1F1113809F43EC0611708F4162FE12ED7
:100B8000FF246091660070916700A701D5D2C091E3
:100B90006600D0916700C230D10598F1CE0DDF1DFF
:100BA000D0936700C0936600E0906800E11AE0927D
:100BB000680022E0C030D207D8F481E0E11080E084
:100BC000DF91CF911F91FF90EF90089581E0DF9129
:100BD000CF911F91FF90EF900895109268006330BD
:100BE00000F58FEFDF91CF911F91FF90EF90089567
:100BF000F0DDE3CF0196615020E82093680010E813
:100C0000BBCF80E090E093D290936A00809369001C
:100C1000F1E08F3F9F0710F210926A001092690076
:100C2000BDCFFC0121812093660082818093670003
:100C300081E0C6CFFC0186E790E090939C02809310
:100C40009B0280818076803269F08181882341F423
:100C500082818093760083818093770082E008957B
:100C600080E008958181813071F0893011F080E059
:100C7000089582818130E9F08230C9F781E880935C
:100C800068008FEF08958281813039F0823079F7E2
:100C900081E8809365008FEF0895809376008091BE
:100CA000660080937700809167008093780083E0EE
:100CB00008958FEF8093680008952FE088E190E019
:100CC0000FB6F894A89581BD0FBE21BD14BA80E27D
:100CD00085BB87E081BB8AE382BB80916F005DDDCD
:100CE00082E081BB84E487B987EC86B985E083BF65
:100CF0001FBC8DE08EBD8FEF9FEF9BBD8ABD8BE04B
:100D000085BD8CEB83BDE9DB789488EC90E0909313
:100D100064008093630089B7806889BF80E090E0B9
:100D200006D290936A008093690021E08F3F92077A
:100D300020F010926A00109269003FDE4ADD72E0F6
:100D4000F72EE1E0CE2ED12CEE24E394F8E17F2EB5
:100D5000A8E1AA2EB12CBFE06B2EC8EC8C2E912CF2
:100D6000A89563DA08B604FE32C088B7806188BFF0
:100D700080917500882321F480917400882319F0F4
:100D800082B38F2582BB80916D0090916E00009799
:100D900029F0019790936E0080936D008091790007
:100DA00090917A003FEF8F3F930729F0019690933F
:100DB0007A0080937900E0E7F0E08081882311F0E9
:100DC00081508083319680E0E437F807B1F7C09115
:100DD0006900D0916A00209709F479C080916D0074
:100DE00090916E00009709F072C080917400882382
:100DF00009F06DC000916B0010916C000C171D077D
:100E000040F5C80102968BD1282F30E0207C30704D
:100E10002034310539F02038310509F4D8C02115C6
:100E20003105B9F4982F969596959695977089F017
:100E3000282F277087FD56C1C60102C0880F991F51
:100E40002A95E2F7809590916F00892380936F0037
:100E5000A4DCC801019690936C0080936B008C1702
:100E60009D0708F4DDC080917500882309F0AAC0B1
:100E700010926C0010926B0082E090E050D1482FED
:100E800050E09A01207C30702034310539F0213453
:100E900031050CF0A7C021153105C9F4282F2770A2
:100EA000869586958695877080936D0010926E006A
:100EB000C60102C0880F991F2A95E2F746FFEDC0D0
:100EC000809590916F00892380936F0066DC08B64F
:100ED00000FC32C0369944CFE4B1F5B1369A809126
:100EE0007B0090917C009F01281B390BC90137FDC5
:100EF000D0C0873091052CF480917D00882309F0C3
:100F00002FCFE0927D00F0937C00E0937B00F6957C
:100F1000E795F695E795EE7FF070E355FF4F259145
:100F200034913BBD2ABD8CB59DB58217930708F45B
:100F300017CF1DBC1CBC14CF88B7816088BF3DDDB6
:100F400069DD91E0859990E08091800289279093F6
:100F500080028923C0917400882339F0CC2361F585
:100F600080917500882309F05EC081E0849980E05B
:100F700080937400C81709F4ADCF882349F080E04E
:100F800040DC1092750080916F0007DC22DCA2CF5C
:100F900081E037DC809175008823C1F380916F0078
:100FA000FCDB38DD1092800010927F0010927A00F6
:100FB000109279000EDC8ECF1092750080916F0038
:100FC000ECDBD3CFD0936C00C0936B0080CF8370E9
:100FD000E82FF0E0E059FF4F8081882309F477CFB4
:100FE000108237CF2038310509F44EC0203C31053E
:100FF00009F06DCFCA01807390708031910539F08E
:10100000813191050CF050C0009709F060CF4F710D
:1010100050704F5F5F4F50936E0040936D0057CFFD
:10102000C80103962BCF83E060E05EDC1092750070
:1010300080916F00B2DB0FB6F89471BC11BC0FBE8B
:1010400040917F00509180004E5F5F4F8FE790E0AE
:1010500060E070E071D00FB6F894A895A1BC0FBE07
:1010600061BC80917F009091800090936A00809392
:101070006900909264008092630089B7806889BF9C
:10108000A8DBC091740071CF10926E0010926D00B9
:101090001ECF909581959F4F2CCF9C0180916F0022
:1010A000822B80936F0012CF8032910561F08033E4
:1010B000910509F00CCF4F705070440F10926D00E5
:1010C00040936E0004CF4F705070440F551F4295EF
:1010D0005295507F5427407F542750936E00409381
:1010E0006D00F5CEC60102C0880F991F2A95E2F760
:1010F0009C0180916F00822B80936F00A9CEDC0150
:10110000CB01FC01E199FECF06C0FFBBEEBBE09A2C
:1011100031960DB20D9241505040B8F70895E199C3
:10112000FECF9FBB8EBBE09A99278DB30895A8E1AF
:10113000B0E042E050E0E5CFDC01CB0102C02D91F0
:1011400005D041505040D8F70895262FE199FECFA1
:101150009FBB8EBB2DBB0FB6F894E29AE19A0FBEEF
:0811600001960895F894FFCFF9
:021168005AFF2C
:00000001FF
